:1000000056C07AC0A6C078C051C676C075C074C04C
:1000100073C072C071C070C06FC06EC06DC0040389
:1000200009041603690076006D006500630068002E
:100030002E0063006F006D00120349005600690036
:100040006E007900550053004200120110010000BB
:100050000008C016DF0500010102000109022200AC
:1000600001010080320904000001030000000921A1
:10007000010100012216000705810308000A06009D
:10008000FF0901A101150026FF007508950109006F
:10009000B20201C000370038003601010101010140
:1000A0000102040810200103000000005305112480
:1000B0001FBECFE5D2E0DEBFCDBF10E0A0E6B0E0CE
:1000C000EAE7F1E102C005900D92A837B107D9F730
:1000D00011E0A8E7B0E001C01D92A73EB107E1F72B
:1000E00010E0CEEAD0E003C02297FE0140D8CC3A1F
:1000F000D107D1F7B0D63FC883CFA82FB92F80E062
:1001000090E041E050EA609530E009C02D918227EF
:100110009795879510F084279527305EC8F36F5F19
:10012000A8F30895EADF8D939D930895A6E08827AC
:100130009927AA9569F00197E1F3B399FCCFB39B96
:10014000FECF81E09927A6B3019611F0A871D9F7E7
:100150000895CF93CFB7CF93C395B39BE9F7B39BE4
:1001600010C0B39B0EC0B39B0CC0B39B0AC0B39B23
:1001700008C0B39B06C0C091CA01C395C093CA0111
:10018000D5C00F92DF93C091C901DD27CF52DE4F5A
:10019000012EB39B03C0DF910F90E1CF2F930F93FC
:1001A0001F934F932FEF4F6F06B303FB20F95F931D
:1001B0003F9350E03BE065C016B30126502953FD44
:1001C000C89556B3012703FB25F92F7306B3B1F089
:1001D0005027102713FB26F906B22230F0F000C09A
:1001E00016B3012703FB27F90126502906B2243054
:1001F000E8F54F77206816B30000F6CF50274F7D03
:10020000206206B2102F000000C006B3002650295D
:10021000102713FB26F906B2E2CF4F7B06B320640A
:1002200000C0DACF01265029187106B269F14E7F5D
:100230002160012F16B328C0002650294D7F06B239
:100240002260102F29C0012650294B7F06B224605E
:10025000012F2DC016B301265029477F28600000CA
:1002600006B22EC04F7E06B3206130C0422706B3CF
:10027000499300265029102706B24FEF13FB20F9AF
:10028000297F16B379F2187159F10126502906B267
:10029000012703FB21F9237F06B371F200265029C1
:1002A0003150D0F006B2102713FB22F9277E16B387
:1002B00051F201265029012703FB06B223F92F7CB6
:1002C00049F2000006B3102713FB24F90026502939
:1002D00006B22F7939F270CF10E21ABF002719C089
:1002E0003B503195C31BD04010E21ABF0881033C3C
:1002F00009F10B34F9F02091C7011981110F121384
:10030000EDCF4A81441F093651F10D3211F0013E03
:1003100029F70093CF013F915F914F911F910F916A
:100320002F91DF910F90CAB7C5FD16CFCF91CFBFE8
:10033000CF9118952091CF01222369F31091CD011F
:10034000112379F534307AF13093CD012093C8012F
:100350001091C9013BE0311B3093C90124C00091C9
:10036000CD010130F4F40AE54F7049F43091690091
:1003700034FD1AC000936900C0EBD1E019C0309180
:10038000BB0134FD11C00093BB01CCEBD1E010C028
:10039000052710E000C021C0052710E0C89508BB64
:1003A00014C03AE501C032ED032EC0E0D0E032E0E7
:1003B00017B31861C39A08B317BB58E120E84FEF91
:1003C00020FF052708BB279517951C3F28F700003D
:1003D0004552B0F720FF0527279508BB17951C3F0E
:1003E000B8F629913A9561F7077E1091CE01110F69
:1003F00008BBC250D04011F01093C70110E21ABFE1
:10040000086017B3177E402F477E54E05A95F1F7E6
:1004100008BB17BB48BB7FCFCF93DF93C1E0D0E0D1
:100420008CE891E05BD2892B09F492C08CE891E0D2
:1004300068D290937900809378008133910509F414
:1004400090C088349105A1F48CE891E05AD28134AF
:10045000910511F480E00AC08234910511F481E025
:1004600005C08334910509F073C082E061E00BC0E0
:100470008C349105A9F48CE891E043D28134910544
:1004800021F480E060E089D363C08234910511F4E7
:1004900081E0F8CF8334910509F05AC082E0F2CFB1
:1004A0008F34910551F58CE891E02BD28134910580
:1004B00041F4D0937B00C0937A0080E061E049D39F
:1004C000E0CF8234910531F4D0937D00C0937C005D
:1004D00081E011C08334910531F4D0937F00C09343
:1004E0007E0082E008C08434910591F5D0938100AC
:1004F000C093800083E061E02AC08934910541F512
:100500008CE891E0FED18134910531F410927B00AA
:1005100010927A0080E01AC08234910531F4109272
:100520007D0010927C0081E011C08334910531F48C
:1005300010927F0010927E0082E008C08434910502
:1005400039F4109281001092800083E060E001D3C2
:100550008CE891E0BBD265E070E080E090E0FAD3F7
:100560005FCFDF91CF9108958CE891E0AFD28CE816
:1005700091E04AE050E060E070E0AAD281E072D3FE
:10058000BC018CE891E04AE050E06AD58CE891E04B
:100590006CE240E050E076D581E064D3BC018CE8A9
:1005A00091E04AE050E05CD580917A0090917B0028
:1005B000892B31F080917C0090917D00892BE1F4B2
:1005C0008CE891E06BE340E050E05CD580E01AD32A
:1005D000BC018CE891E04AE050E042D58CE891E023
:1005E0006CE240E050E04ED581E00CD3BC018CE8D9
:1005F00091E04AE050E034D58CE891E056D50CDF2C
:1006000008950F931F930CE811E0C80193D2C8011D
:100610006FE070E0CDD180E060917A009AD281E005
:1006200060917C0096D21F910F910895EF92FF92F6
:100630000F931F93CF93DF9380E8F82E00E0C0E084
:10064000D0E0102F1F0D11BF71DD29E08433920718
:100650000CF0102FF6942196C830D10511F0012F1F
:10066000F0CF115011BF1F5F7C01C12FD0E0219648
:1006700010C05CDD8453994097FF03C0909581952D
:100680009F4F8E159F0514F411B77C0181B78F5FC2
:1006900081BF81B790E0C817D9075CF711BFDF9120
:1006A000CF911F910F91FF90EF900895AB9A8BB768
:1006B00080628BBF8BE48093BC018AE58093BB0191
:1006C00008951F93CF93DF939091CD01935097FDA1
:1006D0009BC02091C9018091C8018D3209F092C060
:1006E000983009F08FC0CCE0D0E0C21BD109CF52C6
:1006F000DE4F83EC8093B0018AE58093690010920D
:1007000083008881807621F0CE017AD1282F71C0B4
:100710009A811092B9018981882321F41092BA013B
:1007200022E061C0853019F49093CE015BC0863021
:1007300009F044C08B81813019F48AE490E01FC035
:10074000823041F48CE590E09093CC018093CB0112
:1007500022E230C08330C9F4992341F48EE190E065
:100760009093CC018093CB0124E024C0913019F404
:1007700082E290E018C09230E1F488E390E0909338
:10078000CC018093CB0122E115C0813241F48EE689
:1007900090E09093CC018093CB0129E00BC0823292
:1007A00041F48EE790E09093CC018093CB0126E159
:1007B00001C020E080E4809383001BC0883021F4D6
:1007C00021E080ED91E011C0893019F49093D001BF
:1007D00009C08A3011F421E006C08B3019F48BE493
:1007E0008093BC0120E089EB91E09093CC01809351
:1007F000CB018F81882321F48E81821708F4282F62
:1008000020936A001092CD018091690084FF49C055
:1008100080916A008F3F09F444C0182F893008F096
:1008200018E0811B80936A008091B00198E88927C5
:100830008093B001112341F12091CB013091CC0183
:100840008091830086FF0DC0A1EBB1E080E090E0D5
:10085000F901E80FF91FE491ED9301961817C1F71C
:1008600008C0912FD901E1EBF1E08D918193915076
:10087000E1F71150812F90E01F5F0196820F931FC7
:100880009093CC018093CB0181EB91E0612F4ADC06
:10089000612F6C5F6C3019F08FEF80936A0060936A
:1008A000690094E186B3887131F49150D9F71092C0
:1008B000CE011092C70110E0992309F411E0809154
:1008C0008200811739F0112319F4F894AFDE78947F
:1008D00010938200DF91CF911F910895DC01129651
:1008E000ED91FC911397E058FF4F819191918058C1
:1008F0009F4F20813181821B930B60E870E0ECD325
:100900000895CF93DF93DC011296ED91FC9113973C
:10091000EF01CE57DF4F48815981E058FF4F80816A
:100920009181E058F0408417950719F42FEF3FEFBD
:100930000BC0E40FF51F2081CA01019660E870E04A
:10094000CBD39983888330E0C901DF91CF9108959B
:100950000F931F93CF93DF93462FDC011496ED91F5
:10096000FC9115978F0100581F4FD801CD91DC9154
:10097000CE01019660E870E0AFD39C01EE57FF4FC7
:1009800080819181E258F0402817390719F420E05E
:1009900030E008C0EC0FFD1F4083F8013183208355
:1009A00021E030E0C901DF91CF911F910F910895AF
:1009B0006531710514F068E270E070936C0060932B
:1009C0006B00089540918A0150918B0180918801BC
:1009D000909189018417950719F42FEF3FEF0EC00E
:1009E000FA01E85FFE4F2081CA01019660E870E0DD
:1009F00073D390938B0180938A0130E0C9010895ED
:100A0000CF93DF93FC0180818076803209F047C06C
:100A10008181813049F580918801909189018058C8
:100A20009F4F20918A0130918B01821B930B60E8CC
:100A300070E052D3892B99F1C0E0D0E006C0C2DF4C
:100A4000FE01EE56FE4F8083219620916B0030917F
:100A50006C00C217D3079CF382E991E09093CC011C
:100A60008093CB01822F1CC08930C9F44481E0916E
:100A70000401F0910501CF01019660E870E02CD3EC
:100A80009C0180910601909107012817390739F0E0
:100A9000EC57FF4F4083309305012093040180E021
:100AA000DF91CF91089581E790E090938D0180933D
:100AB0008C0184E890E090938F0180938E0188E010
:100AC00091E090939101809390010895FADD08954B
:100AD0006F927F928F929F92AF92BF92CF92DF924E
:100AE000EF92FF920F931F933A014B0125D15B01C7
:100AF0006C010EC021D17B018C01A61AB70AC80A6D
:100B0000D90A6A0C7B1C8C1C9D1CDBDD570168011B
:100B100016141704180419046CF31F910F91FF9019
:100B2000EF90DF90CF90BF90AF909F908F907F908D
:100B30006F900895F894BADDBB9A20E042E251EA42
:100B400003C0CA010197F1F72150D9F7BB987894F7
:100B50000895482F50E0CA0180569F4FFC01249110
:100B600046565F4FFA0184918823B1F0E82FF0E0F8
:100B7000EC56FF4FE491F0E0662341F49FB7F89400
:100B800080812095822380839FBF08959FB7F8942A
:100B90008081822B80839FBF0895282F482F50E0AB
:100BA000CA0180569F4FFC01349146565F4FFA01AF
:100BB0009491992331F1222319F48AB58F7304C0DB
:100BC000213021F48AB58F7C8ABD05C0243019F408
:100BD0008CB58F7C8CBDE92FF0E0EA56FF4FE49195
:100BE000F0E0662341F49FB7F89480813095832329
:100BF00080839FBF08959FB7F8948081832B808363
:100C00009FBF0895282F482F50E0CA0180569F4F5C
:100C1000FC01949146565F4FFA013491332319F445
:100C200020E030E01DC0222319F48AB58F7304C080
:100C3000213021F48AB58F7C8ABD05C0243019F497
:100C40008CB58F7C8CBDE32FF0E0E856FF4FE4912C
:100C5000F0E0808120E030E0892311F021E030E0F5
:100C6000C9010895482F863008F046508091A601AA
:100C700027B1382F3295330F330F307C2F72322B40
:100C800090E084709070969587959695879582955B
:100C9000807F382B37B987B1807F842B87B9369A0C
:100CA0003699FECF24B135B1C901089578941F92C9
:100CB0000F920FB60F9211242F933F938F939F9310
:100CC000AF93BF938091AB019091AC01A091AD0126
:100CD000B091AE013091AF01232F24582D3720F071
:100CE0002D570196A11DB11D2093AF018093AB013B
:100CF0009093AC01A093AD01B093AE018091A70198
:100D00009091A801A091A901B091AA010196A11DFD
:100D1000B11D8093A7019093A801A093A901B0935E
:100D2000AA01BF91AF919F918F913F912F910F9009
:100D30000FBE0F901F9018958FB7F8942091AB01BC
:100D40003091AC014091AD015091AE018FBFB9011E
:100D5000CA0108959B01AC017FB7F8948091A70167
:100D60009091A801A091A901B091AA016FB508B610
:100D700002FE05C06F3F19F00196A11DB11D7FBF96
:100D8000BA2FA92F982F8827860F911DA11DB11D5D
:100D900062E0880F991FAA1FBB1F6A95D1F7BC019B
:100DA0002EC0FFB7F8948091A7019091A801A0915F
:100DB000A901B091AA01EFB508B602FE05C0EF3F48
:100DC00019F00196A11DB11DFFBFBA2FA92F982FB1
:100DD00088278E0F911DA11DB11DE2E0880F991F7C
:100DE000AA1FBB1FEA95D1F7861B970B885E93401D
:100DF000C0F2215030404040504068517C4F211596
:100E000031054105510569F60895789480B78068E9
:100E100080BF80B7806480BF8CB580648CBD8FEF4D
:100E20008DBD80B7807F876080BF89B7846089BFB0
:100E300083B7887F83BF8AB58C7F81608ABD83B783
:100E4000877F83BF83B7887F836083BF86B18760D6
:100E500086B9379A0895D9DFD4DB86DBFECF0F93AE
:100E60001F93CF93DF938C01EB0109C02196D8012A
:100E7000ED91FC910190F081E02DC8010995688108
:100E80006623A1F7DF91CF911F910F910895EF9203
:100E9000FF920F931F93CF93DF938C017B01EA01A5
:100EA0000CC0D7016D917D01D801ED91FC910190AD
:100EB000F081E02DC80109952197209791F7DF91E6
:100EC000CF911F910F91FF90EF9008952F923F9235
:100ED0004F925F926F927F928F929F92AF92BF924A
:100EE000CF92DF92EF92FF920F931F93DF93CF93F6
:100EF000CDB7DEB7A0970FB6F894DEBF0FBECDBF5B
:100F00001C016A017B01411551056105710541F420
:100F100040E350E060E070E020E030E06DD053C08E
:100F2000882499245401422E55246624772401E014
:100F300010E00C0F1D1F080D191DC701B601A301FC
:100F40009201DDD0F80160830894811C911CA11CE2
:100F5000B11CC701B601A3019201D1D0C901DA01C8
:100F60006C017D01C114D104E104F10401F781E0B9
:100F7000E82EF12CEC0EFD1EE80CF91C3E01089445
:100F8000611C711CD501C4010197A109B1096C0153
:100F9000C818D90815C0F601EE0DFF1D40814A3072
:100FA00010F4405D01C0495C552747FD5095652F01
:100FB000752FC10120E030E01FD00894E108F1084E
:100FC0006E147F0441F7A0960FB6F894DEBF0FBEF3
:100FD000CDBFCF91DF911F910F91FF90EF90DF90E8
:100FE000CF90BF90AF909F908F907F906F905F90C9
:100FF0004F903F902F900895EF92FF920F931F9381
:10100000CF93DF93EC017A018B012115310541F477
:10101000E881F9810190F081E02D642F099519C0D4
:101020002A303105A9F477FF0FC04DE250E060E0AF
:1010300070E020E030E0E0DF10950095F094E0945F
:10104000E11CF11C011D111DCE01B801A7012AE010
:101050003DDFDF91CF911F910F91FF90EF900895A9
:10106000EF92FF920F931F937B019A010027F7FCE9
:101070000095102FB801A701BFDF1F910F91FF90BE
:10108000EF900895EF92FF920F931F93E62E9A012F
:10109000FF24E7FCF0940F2D1F2DB801A701ACDF52
:1010A0001F910F91FF90EF9008950F931F938C0164
:1010B0004DE050E060E070E020E030E09DDFC801EE
:1010C0004AE050E060E070E020E030E095DF82E050
:1010D00090E01F910F91089597FB092E07260AD0E3
:1010E00077FD04D02ED006D000201AF470956195BB
:1010F0007F4F0895F6F7909581959F4F0895A1E24F
:101100001A2EAA1BBB1BFD010DC0AA1FBB1FEE1F81
:10111000FF1FA217B307E407F50720F0A21BB30BCC
:10112000E40BF50B661F771F881F991F1A9469F748
:1011300060957095809590959B01AC01BD01CF01A4
:101140000895AA1BBB1B51E107C0AA1FBB1FA6170E
:10115000B70710F0A61BB70B881F991F5A95A9F760
:1011600080959095BC01CD010895EE0FFF1F05906D
:0A117000F491E02D0994F894FFCFEC
:10117A002E00002000E70100005AFF1400000000C2
:08118A0000A8042F074707002D
:00000001FF
